{
  "_format": "hh-sol-artifact-1",
  "contractName": "HouseNFT",
  "sourceName": "contracts/HouseNFT.sol",
  "abi": [
    {
      "inputs": [],
      "stateMutability": "nonpayable",
      "type": "constructor"
    },
    {
      "inputs": [
        {
          "internalType": "address",
          "name": "sender",
          "type": "address"
        },
        {
          "internalType": "uint256",
          "name": "tokenId",
          "type": "uint256"
        },
        {
          "internalType": "address",
          "name": "owner",
          "type": "address"
        }
      ],
      "name": "ERC721IncorrectOwner",
      "type": "error"
    },
    {
      "inputs": [
        {
          "internalType": "address",
          "name": "operator",
          "type": "address"
        },
        {
          "internalType": "uint256",
          "name": "tokenId",
          "type": "uint256"
        }
      ],
      "name": "ERC721InsufficientApproval",
      "type": "error"
    },
    {
      "inputs": [
        {
          "internalType": "address",
          "name": "approver",
          "type": "address"
        }
      ],
      "name": "ERC721InvalidApprover",
      "type": "error"
    },
    {
      "inputs": [
        {
          "internalType": "address",
          "name": "operator",
          "type": "address"
        }
      ],
      "name": "ERC721InvalidOperator",
      "type": "error"
    },
    {
      "inputs": [
        {
          "internalType": "address",
          "name": "owner",
          "type": "address"
        }
      ],
      "name": "ERC721InvalidOwner",
      "type": "error"
    },
    {
      "inputs": [
        {
          "internalType": "address",
          "name": "receiver",
          "type": "address"
        }
      ],
      "name": "ERC721InvalidReceiver",
      "type": "error"
    },
    {
      "inputs": [
        {
          "internalType": "address",
          "name": "sender",
          "type": "address"
        }
      ],
      "name": "ERC721InvalidSender",
      "type": "error"
    },
    {
      "inputs": [
        {
          "internalType": "uint256",
          "name": "tokenId",
          "type": "uint256"
        }
      ],
      "name": "ERC721NonexistentToken",
      "type": "error"
    },
    {
      "anonymous": false,
      "inputs": [
        {
          "indexed": true,
          "internalType": "address",
          "name": "owner",
          "type": "address"
        },
        {
          "indexed": true,
          "internalType": "address",
          "name": "approved",
          "type": "address"
        },
        {
          "indexed": true,
          "internalType": "uint256",
          "name": "tokenId",
          "type": "uint256"
        }
      ],
      "name": "Approval",
      "type": "event"
    },
    {
      "anonymous": false,
      "inputs": [
        {
          "indexed": true,
          "internalType": "address",
          "name": "owner",
          "type": "address"
        },
        {
          "indexed": true,
          "internalType": "address",
          "name": "operator",
          "type": "address"
        },
        {
          "indexed": false,
          "internalType": "bool",
          "name": "approved",
          "type": "bool"
        }
      ],
      "name": "ApprovalForAll",
      "type": "event"
    },
    {
      "anonymous": false,
      "inputs": [
        {
          "indexed": false,
          "internalType": "uint256",
          "name": "_fromTokenId",
          "type": "uint256"
        },
        {
          "indexed": false,
          "internalType": "uint256",
          "name": "_toTokenId",
          "type": "uint256"
        }
      ],
      "name": "BatchMetadataUpdate",
      "type": "event"
    },
    {
      "anonymous": false,
      "inputs": [
        {
          "indexed": false,
          "internalType": "uint256",
          "name": "_tokenId",
          "type": "uint256"
        }
      ],
      "name": "MetadataUpdate",
      "type": "event"
    },
    {
      "anonymous": false,
      "inputs": [
        {
          "indexed": true,
          "internalType": "address",
          "name": "from",
          "type": "address"
        },
        {
          "indexed": true,
          "internalType": "address",
          "name": "to",
          "type": "address"
        },
        {
          "indexed": true,
          "internalType": "uint256",
          "name": "tokenId",
          "type": "uint256"
        }
      ],
      "name": "Transfer",
      "type": "event"
    },
    {
      "inputs": [
        {
          "internalType": "address",
          "name": "to",
          "type": "address"
        },
        {
          "internalType": "uint256",
          "name": "tokenId",
          "type": "uint256"
        }
      ],
      "name": "approve",
      "outputs": [],
      "stateMutability": "nonpayable",
      "type": "function"
    },
    {
      "inputs": [
        {
          "internalType": "address",
          "name": "owner",
          "type": "address"
        }
      ],
      "name": "balanceOf",
      "outputs": [
        {
          "internalType": "uint256",
          "name": "",
          "type": "uint256"
        }
      ],
      "stateMutability": "view",
      "type": "function"
    },
    {
      "inputs": [
        {
          "internalType": "uint256",
          "name": "tokenId",
          "type": "uint256"
        },
        {
          "internalType": "uint256",
          "name": "comission",
          "type": "uint256"
        }
      ],
      "name": "buyToken",
      "outputs": [],
      "stateMutability": "payable",
      "type": "function"
    },
    {
      "inputs": [
        {
          "internalType": "uint256",
          "name": "tokenId",
          "type": "uint256"
        }
      ],
      "name": "getApproved",
      "outputs": [
        {
          "internalType": "address",
          "name": "",
          "type": "address"
        }
      ],
      "stateMutability": "view",
      "type": "function"
    },
    {
      "inputs": [
        {
          "internalType": "address",
          "name": "owner",
          "type": "address"
        }
      ],
      "name": "getOwnedTokens",
      "outputs": [
        {
          "internalType": "uint256[]",
          "name": "",
          "type": "uint256[]"
        }
      ],
      "stateMutability": "view",
      "type": "function"
    },
    {
      "inputs": [
        {
          "internalType": "uint256",
          "name": "tokenId",
          "type": "uint256"
        }
      ],
      "name": "getTokenDetails",
      "outputs": [
        {
          "internalType": "address",
          "name": "owner",
          "type": "address"
        },
        {
          "internalType": "string",
          "name": "uri",
          "type": "string"
        }
      ],
      "stateMutability": "view",
      "type": "function"
    },
    {
      "inputs": [],
      "name": "getTotalMinted",
      "outputs": [
        {
          "internalType": "uint256",
          "name": "",
          "type": "uint256"
        }
      ],
      "stateMutability": "view",
      "type": "function"
    },
    {
      "inputs": [
        {
          "internalType": "address",
          "name": "owner",
          "type": "address"
        },
        {
          "internalType": "address",
          "name": "operator",
          "type": "address"
        }
      ],
      "name": "isApprovedForAll",
      "outputs": [
        {
          "internalType": "bool",
          "name": "",
          "type": "bool"
        }
      ],
      "stateMutability": "view",
      "type": "function"
    },
    {
      "inputs": [
        {
          "internalType": "uint256",
          "name": "tokenId",
          "type": "uint256"
        },
        {
          "internalType": "uint256",
          "name": "price",
          "type": "uint256"
        },
        {
          "internalType": "uint256",
          "name": "time",
          "type": "uint256"
        }
      ],
      "name": "listToken",
      "outputs": [],
      "stateMutability": "nonpayable",
      "type": "function"
    },
    {
      "inputs": [
        {
          "internalType": "uint256",
          "name": "",
          "type": "uint256"
        }
      ],
      "name": "listingTimings",
      "outputs": [
        {
          "internalType": "uint256",
          "name": "",
          "type": "uint256"
        }
      ],
      "stateMutability": "view",
      "type": "function"
    },
    {
      "inputs": [
        {
          "internalType": "uint256",
          "name": "",
          "type": "uint256"
        }
      ],
      "name": "marketListings",
      "outputs": [
        {
          "internalType": "uint256",
          "name": "",
          "type": "uint256"
        }
      ],
      "stateMutability": "view",
      "type": "function"
    },
    {
      "inputs": [],
      "name": "name",
      "outputs": [
        {
          "internalType": "string",
          "name": "",
          "type": "string"
        }
      ],
      "stateMutability": "view",
      "type": "function"
    },
    {
      "inputs": [
        {
          "internalType": "uint256",
          "name": "tokenId",
          "type": "uint256"
        }
      ],
      "name": "ownerOf",
      "outputs": [
        {
          "internalType": "address",
          "name": "",
          "type": "address"
        }
      ],
      "stateMutability": "view",
      "type": "function"
    },
    {
      "inputs": [
        {
          "internalType": "address",
          "name": "",
          "type": "address"
        },
        {
          "internalType": "uint256",
          "name": "",
          "type": "uint256"
        }
      ],
      "name": "ownership",
      "outputs": [
        {
          "internalType": "uint256",
          "name": "",
          "type": "uint256"
        }
      ],
      "stateMutability": "view",
      "type": "function"
    },
    {
      "inputs": [
        {
          "internalType": "address",
          "name": "from",
          "type": "address"
        },
        {
          "internalType": "address",
          "name": "to",
          "type": "address"
        },
        {
          "internalType": "uint256",
          "name": "tokenId",
          "type": "uint256"
        }
      ],
      "name": "safeTransferFrom",
      "outputs": [],
      "stateMutability": "nonpayable",
      "type": "function"
    },
    {
      "inputs": [
        {
          "internalType": "address",
          "name": "from",
          "type": "address"
        },
        {
          "internalType": "address",
          "name": "to",
          "type": "address"
        },
        {
          "internalType": "uint256",
          "name": "tokenId",
          "type": "uint256"
        },
        {
          "internalType": "bytes",
          "name": "data",
          "type": "bytes"
        }
      ],
      "name": "safeTransferFrom",
      "outputs": [],
      "stateMutability": "nonpayable",
      "type": "function"
    },
    {
      "inputs": [
        {
          "internalType": "address",
          "name": "operator",
          "type": "address"
        },
        {
          "internalType": "bool",
          "name": "approved",
          "type": "bool"
        }
      ],
      "name": "setApprovalForAll",
      "outputs": [],
      "stateMutability": "nonpayable",
      "type": "function"
    },
    {
      "inputs": [
        {
          "internalType": "bytes4",
          "name": "interfaceId",
          "type": "bytes4"
        }
      ],
      "name": "supportsInterface",
      "outputs": [
        {
          "internalType": "bool",
          "name": "",
          "type": "bool"
        }
      ],
      "stateMutability": "view",
      "type": "function"
    },
    {
      "inputs": [],
      "name": "symbol",
      "outputs": [
        {
          "internalType": "string",
          "name": "",
          "type": "string"
        }
      ],
      "stateMutability": "view",
      "type": "function"
    },
    {
      "inputs": [
        {
          "internalType": "uint256",
          "name": "tokenId",
          "type": "uint256"
        }
      ],
      "name": "tokenURI",
      "outputs": [
        {
          "internalType": "string",
          "name": "",
          "type": "string"
        }
      ],
      "stateMutability": "view",
      "type": "function"
    },
    {
      "inputs": [
        {
          "internalType": "address",
          "name": "from",
          "type": "address"
        },
        {
          "internalType": "address",
          "name": "to",
          "type": "address"
        },
        {
          "internalType": "uint256",
          "name": "tokenId",
          "type": "uint256"
        }
      ],
      "name": "transferFrom",
      "outputs": [],
      "stateMutability": "nonpayable",
      "type": "function"
    },
    {
      "inputs": [
        {
          "internalType": "uint256",
          "name": "tokenId",
          "type": "uint256"
        }
      ],
      "name": "unlistToken",
      "outputs": [],
      "stateMutability": "nonpayable",
      "type": "function"
    },
    {
      "inputs": [
        {
          "internalType": "uint256",
          "name": "tokenId",
          "type": "uint256"
        },
        {
          "internalType": "uint256",
          "name": "newPrice",
          "type": "uint256"
        }
      ],
      "name": "updateTokenPrice",
      "outputs": [],
      "stateMutability": "nonpayable",
      "type": "function"
    }
  ],
  "bytecode": "0x6080604052604051806101800160405280604051806060016040528060248152602001613f97602491398152602001604051806060016040528060258152602001613f26602591398152602001604051806060016040528060268152602001613ead602691398152602001604051806060016040528060258152602001613e88602591398152602001604051806060016040528060288152602001613ed3602891398152602001604051806060016040528060268152602001613f716026913981526020016040518060600160405280602b8152602001613efb602b91398152602001604051806060016040528060268152602001613f4b602691398152602001604051806060016040528060248152602001614004602491398152602001604051806060016040528060238152602001613fbb602391398152602001604051806060016040528060268152602001613fde60269139815260200160405180606001604052806026815260200161402860269139815250600890600c610186929190610d93565b50604051806060016040528073fafcb0bf514a8e65f0f00de9eee590b784c97fac73ffffffffffffffffffffffffffffffffffffffff1673ffffffffffffffffffffffffffffffffffffffff16815260200173189b69349cf715f310d80909cc4554d94184c3a273ffffffffffffffffffffffffffffffffffffffff1673ffffffffffffffffffffffffffffffffffffffff16815260200173aaab02539b2fd7ac1103720e14e0a32bcb41654b73ffffffffffffffffffffffffffffffffffffffff1673ffffffffffffffffffffffffffffffffffffffff168152506014906003610272929190610ddf565b5034801561027f57600080fd5b506040518060400160405280600881526020017f486f7573654e46540000000000000000000000000000000000000000000000008152506040518060400160405280600581526020017f484f55534500000000000000000000000000000000000000000000000000000081525081600090816102fb919061112d565b50806001908161030b919061112d565b50505060005b600c8110156104bc57610408601460038361032c919061122e565b6003811061033d5761033c61125f565b5b0160009054906101000a900473ffffffffffffffffffffffffffffffffffffffff16600883600c81106103735761037261125f565b5b01805461037f90610f46565b80601f01602080910402602001604051908101604052809291908181526020018280546103ab90610f46565b80156103f85780601f106103cd576101008083540402835291602001916103f8565b820191906000526020600020905b8154815290600101906020018083116103db57829003601f168201915b50505050506104c260201b60201c565b60196000601460038461041b919061122e565b6003811061042c5761042b61125f565b5b0160009054906101000a900473ffffffffffffffffffffffffffffffffffffffff1673ffffffffffffffffffffffffffffffffffffffff1673ffffffffffffffffffffffffffffffffffffffff1681526020019081526020016000208190806001815401808255809150506001900390600052602060002001600090919091909150558080600101915050610311565b506113a0565b600060075490506104d9838261050860201b60201c565b6104e9818361060760201b60201c565b6001600760008282546104fc91906112bd565b92505081905550505050565b600073ffffffffffffffffffffffffffffffffffffffff168273ffffffffffffffffffffffffffffffffffffffff160361057a5760006040517f64a0ae920000000000000000000000000000000000000000000000000000000081526004016105719190611332565b60405180910390fd5b600061058e8383600061066360201b60201c565b9050600073ffffffffffffffffffffffffffffffffffffffff168173ffffffffffffffffffffffffffffffffffffffff16146106025760006040517f73c6ac6e0000000000000000000000000000000000000000000000000000000081526004016105f99190611332565b60405180910390fd5b505050565b80600660008481526020019081526020016000209081610627919061112d565b507ff8e1a15aba9398e019f0b49df1a4fde98ee17ae345cb5f6b5e2c27f5033e8ce782604051610657919061135c565b60405180910390a15050565b6000806106758461088f60201b60201c565b9050600073ffffffffffffffffffffffffffffffffffffffff168373ffffffffffffffffffffffffffffffffffffffff16146106bd576106bc8184866108cc60201b60201c565b5b600073ffffffffffffffffffffffffffffffffffffffff168173ffffffffffffffffffffffffffffffffffffffff16146107545761070560008560008061099660201b60201c565b6001600360008373ffffffffffffffffffffffffffffffffffffffff1673ffffffffffffffffffffffffffffffffffffffff168152602001908152602001600020600082825403925050819055505b600073ffffffffffffffffffffffffffffffffffffffff168573ffffffffffffffffffffffffffffffffffffffff16146107d7576001600360008773ffffffffffffffffffffffffffffffffffffffff1673ffffffffffffffffffffffffffffffffffffffff168152602001908152602001600020600082825401925050819055505b846002600086815260200190815260200160002060006101000a81548173ffffffffffffffffffffffffffffffffffffffff021916908373ffffffffffffffffffffffffffffffffffffffff160217905550838573ffffffffffffffffffffffffffffffffffffffff168273ffffffffffffffffffffffffffffffffffffffff167fddf252ad1be2c89b69c2b068fc378daa952ba7f163c4a11628f55a4df523b3ef60405160405180910390a4809150509392505050565b60006002600083815260200190815260200160002060009054906101000a900473ffffffffffffffffffffffffffffffffffffffff169050919050565b6108dd838383610b6760201b60201c565b61099157600073ffffffffffffffffffffffffffffffffffffffff168373ffffffffffffffffffffffffffffffffffffffff160361095257806040517f7e273289000000000000000000000000000000000000000000000000000000008152600401610949919061135c565b60405180910390fd5b81816040517f177e802f000000000000000000000000000000000000000000000000000000008152600401610988929190611377565b60405180910390fd5b505050565b80806109cf5750600073ffffffffffffffffffffffffffffffffffffffff168273ffffffffffffffffffffffffffffffffffffffff1614155b15610b0f5760006109e584610c3460201b60201c565b9050600073ffffffffffffffffffffffffffffffffffffffff168373ffffffffffffffffffffffffffffffffffffffff1614158015610a5057508273ffffffffffffffffffffffffffffffffffffffff168173ffffffffffffffffffffffffffffffffffffffff1614155b8015610a695750610a678184610cc260201b60201c565b155b15610aab57826040517fa9fbf51f000000000000000000000000000000000000000000000000000000008152600401610aa29190611332565b60405180910390fd5b8115610b0d57838573ffffffffffffffffffffffffffffffffffffffff168273ffffffffffffffffffffffffffffffffffffffff167f8c5be1e5ebec7d5bd14f71427d1e84f3dd0314c0f7b2291e5b200ac8c7c3b92560405160405180910390a45b505b836004600085815260200190815260200160002060006101000a81548173ffffffffffffffffffffffffffffffffffffffff021916908373ffffffffffffffffffffffffffffffffffffffff16021790555050505050565b60008073ffffffffffffffffffffffffffffffffffffffff168373ffffffffffffffffffffffffffffffffffffffff1614158015610c2b57508273ffffffffffffffffffffffffffffffffffffffff168473ffffffffffffffffffffffffffffffffffffffff161480610be65750610be58484610cc260201b60201c565b5b80610c2a57508273ffffffffffffffffffffffffffffffffffffffff16610c1283610d5660201b60201c565b73ffffffffffffffffffffffffffffffffffffffff16145b5b90509392505050565b600080610c468361088f60201b60201c565b9050600073ffffffffffffffffffffffffffffffffffffffff168173ffffffffffffffffffffffffffffffffffffffff1603610cb957826040517f7e273289000000000000000000000000000000000000000000000000000000008152600401610cb0919061135c565b60405180910390fd5b80915050919050565b6000600560008473ffffffffffffffffffffffffffffffffffffffff1673ffffffffffffffffffffffffffffffffffffffff16815260200190815260200160002060008373ffffffffffffffffffffffffffffffffffffffff1673ffffffffffffffffffffffffffffffffffffffff16815260200190815260200160002060009054906101000a900460ff16905092915050565b60006004600083815260200190815260200160002060009054906101000a900473ffffffffffffffffffffffffffffffffffffffff169050919050565b82600c8101928215610dce579160200282015b82811115610dcd578251829081610dbd919061112d565b5091602001919060010190610da6565b5b509050610ddb9190610e5c565b5090565b8260038101928215610e4b579160200282015b82811115610e4a5782518260006101000a81548173ffffffffffffffffffffffffffffffffffffffff021916908373ffffffffffffffffffffffffffffffffffffffff16021790555091602001919060010190610df2565b5b509050610e589190610e80565b5090565b5b80821115610e7c5760008181610e739190610e9d565b50600101610e5d565b5090565b5b80821115610e99576000816000905550600101610e81565b5090565b508054610ea990610f46565b6000825580601f10610ebb5750610eda565b601f016020900490600052602060002090810190610ed99190610e80565b5b50565b600081519050919050565b7f4e487b7100000000000000000000000000000000000000000000000000000000600052604160045260246000fd5b7f4e487b7100000000000000000000000000000000000000000000000000000000600052602260045260246000fd5b60006002820490506001821680610f5e57607f821691505b602082108103610f7157610f70610f17565b5b50919050565b60008190508160005260206000209050919050565b60006020601f8301049050919050565b600082821b905092915050565b600060088302610fd97fffffffffffffffffffffffffffffffffffffffffffffffffffffffffffffffff82610f9c565b610fe38683610f9c565b95508019841693508086168417925050509392505050565b6000819050919050565b6000819050919050565b600061102a61102561102084610ffb565b611005565b610ffb565b9050919050565b6000819050919050565b6110448361100f565b61105861105082611031565b848454610fa9565b825550505050565b600090565b61106d611060565b61107881848461103b565b505050565b5b8181101561109c57611091600082611065565b60018101905061107e565b5050565b601f8211156110e1576110b281610f77565b6110bb84610f8c565b810160208510156110ca578190505b6110de6110d685610f8c565b83018261107d565b50505b505050565b600082821c905092915050565b6000611104600019846008026110e6565b1980831691505092915050565b600061111d83836110f3565b9150826002028217905092915050565b61113682610edd565b67ffffffffffffffff81111561114f5761114e610ee8565b5b6111598254610f46565b6111648282856110a0565b600060209050601f8311600181146111975760008415611185578287015190505b61118f8582611111565b8655506111f7565b601f1984166111a586610f77565b60005b828110156111cd578489015182556001820191506020850194506020810190506111a8565b868310156111ea57848901516111e6601f8916826110f3565b8355505b6001600288020188555050505b505050505050565b7f4e487b7100000000000000000000000000000000000000000000000000000000600052601260045260246000fd5b600061123982610ffb565b915061124483610ffb565b925082611254576112536111ff565b5b828206905092915050565b7f4e487b7100000000000000000000000000000000000000000000000000000000600052603260045260246000fd5b7f4e487b7100000000000000000000000000000000000000000000000000000000600052601160045260246000fd5b60006112c882610ffb565b91506112d383610ffb565b92508282019050808211156112eb576112ea61128e565b5b92915050565b600073ffffffffffffffffffffffffffffffffffffffff82169050919050565b600061131c826112f1565b9050919050565b61132c81611311565b82525050565b60006020820190506113476000830184611323565b92915050565b61135681610ffb565b82525050565b6000602082019050611371600083018461134d565b92915050565b600060408201905061138c6000830185611323565b611399602083018461134d565b9392505050565b612ad9806113af6000396000f3fe6080604052600436106101405760003560e01c806370a08231116100b6578063bce64a7d1161006f578063bce64a7d1461046f578063c1e0372814610498578063c87b56dd146104d6578063d9d6165514610513578063e985e9c514610550578063ee9bfc8c1461058d57610140565b806370a0823114610363578063897925f5146103a057806395d89b41146103c9578063a22cb465146103f4578063ad3a358c1461041d578063b88d4fde1461044657610140565b80630ca1c5c9116101085780630ca1c5c91461022f57806323b872dd1461025a578063307889521461028357806342842e0e146102c057806361bc3b60146102e95780636352211e1461032657610140565b806301ffc9a714610145578063057466ea1461018257806306fdde031461019e578063081812fc146101c9578063095ea7b314610206575b600080fd5b34801561015157600080fd5b5061016c60048036038101906101679190612053565b6105ca565b604051610179919061209b565b60405180910390f35b61019c600480360381019061019791906120ec565b61062b565b005b3480156101aa57600080fd5b506101b36109ad565b6040516101c091906121bc565b60405180910390f35b3480156101d557600080fd5b506101f060048036038101906101eb91906121de565b610a3f565b6040516101fd919061224c565b60405180910390f35b34801561021257600080fd5b5061022d60048036038101906102289190612293565b610a5b565b005b34801561023b57600080fd5b50610244610a71565b60405161025191906122e2565b60405180910390f35b34801561026657600080fd5b50610281600480360381019061027c91906122fd565b610a7b565b005b34801561028f57600080fd5b506102aa60048036038101906102a591906121de565b610b7d565b6040516102b791906122e2565b60405180910390f35b3480156102cc57600080fd5b506102e760048036038101906102e291906122fd565b610b95565b005b3480156102f557600080fd5b50610310600480360381019061030b91906121de565b610bb5565b60405161031d91906122e2565b60405180910390f35b34801561033257600080fd5b5061034d600480360381019061034891906121de565b610bcd565b60405161035a919061224c565b60405180910390f35b34801561036f57600080fd5b5061038a60048036038101906103859190612350565b610bdf565b60405161039791906122e2565b60405180910390f35b3480156103ac57600080fd5b506103c760048036038101906103c291906120ec565b610c99565b005b3480156103d557600080fd5b506103de610cb5565b6040516103eb91906121bc565b60405180910390f35b34801561040057600080fd5b5061041b600480360381019061041691906123a9565b610d47565b005b34801561042957600080fd5b50610444600480360381019061043f91906121de565b610d5d565b005b34801561045257600080fd5b5061046d6004803603810190610468919061251e565b610d8e565b005b34801561047b57600080fd5b50610496600480360381019061049191906125a1565b610db3565b005b3480156104a457600080fd5b506104bf60048036038101906104ba91906121de565b610de8565b6040516104cd9291906125f4565b60405180910390f35b3480156104e257600080fd5b506104fd60048036038101906104f891906121de565b610e7e565b60405161050a91906121bc565b60405180910390f35b34801561051f57600080fd5b5061053a60048036038101906105359190612350565b610f91565b60405161054791906126e2565b60405180910390f35b34801561055c57600080fd5b5061057760048036038101906105729190612704565b611028565b604051610584919061209b565b60405180910390f35b34801561059957600080fd5b506105b460048036038101906105af9190612293565b6110bc565b6040516105c191906122e2565b60405180910390f35b6000634906490660e01b7bffffffffffffffffffffffffffffffffffffffffffffffffffffffff1916827bffffffffffffffffffffffffffffffffffffffffffffffffffffffff191614806106245750610623826110ed565b5b9050919050565b6000610636836111cf565b9050600033905061064882828661120c565b8173ffffffffffffffffffffffffffffffffffffffff166108fc843461066e9190612773565b9081150290604051600060405180830381858888f19350505050158015610699573d6000803e3d6000fd5b5073fafcb0bf514a8e65f0f00de9eee590b784c97fac73ffffffffffffffffffffffffffffffffffffffff166108fc849081150290604051600060405180830381858888f193505050501580156106f4573d6000803e3d6000fd5b506017600085815260200190815260200160002060009055601960008273ffffffffffffffffffffffffffffffffffffffff1673ffffffffffffffffffffffffffffffffffffffff168152602001908152602001600020849080600181540180825580915050600190039060005260206000200160009091909190915055600080600090505b601960008573ffffffffffffffffffffffffffffffffffffffff1673ffffffffffffffffffffffffffffffffffffffff168152602001908152602001600020805490508110156108375785601960008673ffffffffffffffffffffffffffffffffffffffff1673ffffffffffffffffffffffffffffffffffffffff1681526020019081526020016000208281548110610816576108156127a7565b5b90600052602060002001540361082a578091505b808060010191505061077a565b50601960008473ffffffffffffffffffffffffffffffffffffffff1673ffffffffffffffffffffffffffffffffffffffff1681526020019081526020016000206001601960008673ffffffffffffffffffffffffffffffffffffffff1673ffffffffffffffffffffffffffffffffffffffff168152602001908152602001600020805490506108c69190612773565b815481106108d7576108d66127a7565b5b9060005260206000200154601960008573ffffffffffffffffffffffffffffffffffffffff1673ffffffffffffffffffffffffffffffffffffffff1681526020019081526020016000208281548110610933576109326127a7565b5b9060005260206000200181905550601960008473ffffffffffffffffffffffffffffffffffffffff1673ffffffffffffffffffffffffffffffffffffffff1681526020019081526020016000208054806109905761098f6127d6565b5b600190038181906000526020600020016000905590555050505050565b6060600080546109bc90612834565b80601f01602080910402602001604051908101604052809291908181526020018280546109e890612834565b8015610a355780601f10610a0a57610100808354040283529160200191610a35565b820191906000526020600020905b815481529060010190602001808311610a1857829003601f168201915b5050505050905090565b6000610a4a82611379565b50610a5482611401565b9050919050565b610a6d8282610a6861143e565b611446565b5050565b6000600754905090565b600073ffffffffffffffffffffffffffffffffffffffff168273ffffffffffffffffffffffffffffffffffffffff1603610aed5760006040517f64a0ae92000000000000000000000000000000000000000000000000000000008152600401610ae4919061224c565b60405180910390fd5b6000610b018383610afc61143e565b611458565b90508373ffffffffffffffffffffffffffffffffffffffff168173ffffffffffffffffffffffffffffffffffffffff1614610b77578382826040517f64283d7b000000000000000000000000000000000000000000000000000000008152600401610b6e93929190612865565b60405180910390fd5b50505050565b60176020528060005260406000206000915090505481565b610bb083838360405180602001604052806000815250610d8e565b505050565b60186020528060005260406000206000915090505481565b6000610bd882611379565b9050919050565b60008073ffffffffffffffffffffffffffffffffffffffff168273ffffffffffffffffffffffffffffffffffffffff1603610c525760006040517f89c62b64000000000000000000000000000000000000000000000000000000008152600401610c49919061224c565b60405180910390fd5b600360008373ffffffffffffffffffffffffffffffffffffffff1673ffffffffffffffffffffffffffffffffffffffff168152602001908152602001600020549050919050565b8060176000848152602001908152602001600020819055505050565b606060018054610cc490612834565b80601f0160208091040260200160405190810160405280929190818152602001828054610cf090612834565b8015610d3d5780601f10610d1257610100808354040283529160200191610d3d565b820191906000526020600020905b815481529060010190602001808311610d2057829003601f168201915b5050505050905090565b610d59610d5261143e565b8383611672565b5050565b6017600082815260200190815260200160002060009055601860008281526020019081526020016000206000905550565b610d99848484610a7b565b610dad610da461143e565b858585856117e1565b50505050565b816017600085815260200190815260200160002081905550806018600085815260200190815260200160002081905550505050565b60006060600073ffffffffffffffffffffffffffffffffffffffff16610e0d846111cf565b73ffffffffffffffffffffffffffffffffffffffff1603610e63576040517f08c379a0000000000000000000000000000000000000000000000000000000008152600401610e5a906128e8565b60405180910390fd5b610e6c83610bcd565b610e7584610e7e565b91509150915091565b6060610e8982611379565b506000600660008481526020019081526020016000208054610eaa90612834565b80601f0160208091040260200160405190810160405280929190818152602001828054610ed690612834565b8015610f235780601f10610ef857610100808354040283529160200191610f23565b820191906000526020600020905b815481529060010190602001808311610f0657829003601f168201915b505050505090506000610f34611992565b90506000815103610f49578192505050610f8c565b600082511115610f7e578082604051602001610f66929190612944565b60405160208183030381529060405292505050610f8c565b610f87846119a9565b925050505b919050565b6060601960008373ffffffffffffffffffffffffffffffffffffffff1673ffffffffffffffffffffffffffffffffffffffff16815260200190815260200160002080548060200260200160405190810160405280929190818152602001828054801561101c57602002820191906000526020600020905b815481526020019060010190808311611008575b50505050509050919050565b6000600560008473ffffffffffffffffffffffffffffffffffffffff1673ffffffffffffffffffffffffffffffffffffffff16815260200190815260200160002060008373ffffffffffffffffffffffffffffffffffffffff1673ffffffffffffffffffffffffffffffffffffffff16815260200190815260200160002060009054906101000a900460ff16905092915050565b601960205281600052604060002081815481106110d857600080fd5b90600052602060002001600091509150505481565b60007f80ac58cd000000000000000000000000000000000000000000000000000000007bffffffffffffffffffffffffffffffffffffffffffffffffffffffff1916827bffffffffffffffffffffffffffffffffffffffffffffffffffffffff191614806111b857507f5b5e139f000000000000000000000000000000000000000000000000000000007bffffffffffffffffffffffffffffffffffffffffffffffffffffffff1916827bffffffffffffffffffffffffffffffffffffffffffffffffffffffff1916145b806111c857506111c782611a12565b5b9050919050565b60006002600083815260200190815260200160002060009054906101000a900473ffffffffffffffffffffffffffffffffffffffff169050919050565b600073ffffffffffffffffffffffffffffffffffffffff168273ffffffffffffffffffffffffffffffffffffffff160361127e5760006040517f64a0ae92000000000000000000000000000000000000000000000000000000008152600401611275919061224c565b60405180910390fd5b600061128c83836000611458565b9050600073ffffffffffffffffffffffffffffffffffffffff168173ffffffffffffffffffffffffffffffffffffffff16036112ff57816040517f7e2732890000000000000000000000000000000000000000000000000000000081526004016112f691906122e2565b60405180910390fd5b8373ffffffffffffffffffffffffffffffffffffffff168173ffffffffffffffffffffffffffffffffffffffff1614611373578382826040517f64283d7b00000000000000000000000000000000000000000000000000000000815260040161136a93929190612865565b60405180910390fd5b50505050565b600080611385836111cf565b9050600073ffffffffffffffffffffffffffffffffffffffff168173ffffffffffffffffffffffffffffffffffffffff16036113f857826040517f7e2732890000000000000000000000000000000000000000000000000000000081526004016113ef91906122e2565b60405180910390fd5b80915050919050565b60006004600083815260200190815260200160002060009054906101000a900473ffffffffffffffffffffffffffffffffffffffff169050919050565b600033905090565b6114538383836001611a7c565b505050565b600080611464846111cf565b9050600073ffffffffffffffffffffffffffffffffffffffff168373ffffffffffffffffffffffffffffffffffffffff16146114a6576114a5818486611c41565b5b600073ffffffffffffffffffffffffffffffffffffffff168173ffffffffffffffffffffffffffffffffffffffff1614611537576114e8600085600080611a7c565b6001600360008373ffffffffffffffffffffffffffffffffffffffff1673ffffffffffffffffffffffffffffffffffffffff168152602001908152602001600020600082825403925050819055505b600073ffffffffffffffffffffffffffffffffffffffff168573ffffffffffffffffffffffffffffffffffffffff16146115ba576001600360008773ffffffffffffffffffffffffffffffffffffffff1673ffffffffffffffffffffffffffffffffffffffff168152602001908152602001600020600082825401925050819055505b846002600086815260200190815260200160002060006101000a81548173ffffffffffffffffffffffffffffffffffffffff021916908373ffffffffffffffffffffffffffffffffffffffff160217905550838573ffffffffffffffffffffffffffffffffffffffff168273ffffffffffffffffffffffffffffffffffffffff167fddf252ad1be2c89b69c2b068fc378daa952ba7f163c4a11628f55a4df523b3ef60405160405180910390a4809150509392505050565b600073ffffffffffffffffffffffffffffffffffffffff168273ffffffffffffffffffffffffffffffffffffffff16036116e357816040517f5b08ba180000000000000000000000000000000000000000000000000000000081526004016116da919061224c565b60405180910390fd5b80600560008573ffffffffffffffffffffffffffffffffffffffff1673ffffffffffffffffffffffffffffffffffffffff16815260200190815260200160002060008473ffffffffffffffffffffffffffffffffffffffff1673ffffffffffffffffffffffffffffffffffffffff16815260200190815260200160002060006101000a81548160ff0219169083151502179055508173ffffffffffffffffffffffffffffffffffffffff168373ffffffffffffffffffffffffffffffffffffffff167f17307eab39ab6107e8899845ad3d59bd9653f200f220920489ca2b5937696c31836040516117d4919061209b565b60405180910390a3505050565b60008373ffffffffffffffffffffffffffffffffffffffff163b111561198b578273ffffffffffffffffffffffffffffffffffffffff1663150b7a02868685856040518563ffffffff1660e01b815260040161184094939291906129bd565b6020604051808303816000875af192505050801561187c57506040513d601f19601f820116820180604052508101906118799190612a1e565b60015b611900573d80600081146118ac576040519150601f19603f3d011682016040523d82523d6000602084013e6118b1565b606091505b5060008151036118f857836040517f64a0ae920000000000000000000000000000000000000000000000000000000081526004016118ef919061224c565b60405180910390fd5b805181602001fd5b63150b7a0260e01b7bffffffffffffffffffffffffffffffffffffffffffffffffffffffff1916817bffffffffffffffffffffffffffffffffffffffffffffffffffffffff19161461198957836040517f64a0ae92000000000000000000000000000000000000000000000000000000008152600401611980919061224c565b60405180910390fd5b505b5050505050565b606060405180602001604052806000815250905090565b60606119b482611379565b5060006119bf611992565b905060008151116119df5760405180602001604052806000815250611a0a565b806119e984611d05565b6040516020016119fa929190612944565b6040516020818303038152906040525b915050919050565b60007f01ffc9a7000000000000000000000000000000000000000000000000000000007bffffffffffffffffffffffffffffffffffffffffffffffffffffffff1916827bffffffffffffffffffffffffffffffffffffffffffffffffffffffff1916149050919050565b8080611ab55750600073ffffffffffffffffffffffffffffffffffffffff168273ffffffffffffffffffffffffffffffffffffffff1614155b15611be9576000611ac584611379565b9050600073ffffffffffffffffffffffffffffffffffffffff168373ffffffffffffffffffffffffffffffffffffffff1614158015611b3057508273ffffffffffffffffffffffffffffffffffffffff168173ffffffffffffffffffffffffffffffffffffffff1614155b8015611b435750611b418184611028565b155b15611b8557826040517fa9fbf51f000000000000000000000000000000000000000000000000000000008152600401611b7c919061224c565b60405180910390fd5b8115611be757838573ffffffffffffffffffffffffffffffffffffffff168273ffffffffffffffffffffffffffffffffffffffff167f8c5be1e5ebec7d5bd14f71427d1e84f3dd0314c0f7b2291e5b200ac8c7c3b92560405160405180910390a45b505b836004600085815260200190815260200160002060006101000a81548173ffffffffffffffffffffffffffffffffffffffff021916908373ffffffffffffffffffffffffffffffffffffffff16021790555050505050565b611c4c838383611dd3565b611d0057600073ffffffffffffffffffffffffffffffffffffffff168373ffffffffffffffffffffffffffffffffffffffff1603611cc157806040517f7e273289000000000000000000000000000000000000000000000000000000008152600401611cb891906122e2565b60405180910390fd5b81816040517f177e802f000000000000000000000000000000000000000000000000000000008152600401611cf7929190612a4b565b60405180910390fd5b505050565b606060006001611d1484611e94565b01905060008167ffffffffffffffff811115611d3357611d326123f3565b5b6040519080825280601f01601f191660200182016040528015611d655781602001600182028036833780820191505090505b509050600082602001820190505b600115611dc8578080600190039150507f3031323334353637383961626364656600000000000000000000000000000000600a86061a8153600a8581611dbc57611dbb612a74565b5b04945060008503611d73575b819350505050919050565b60008073ffffffffffffffffffffffffffffffffffffffff168373ffffffffffffffffffffffffffffffffffffffff1614158015611e8b57508273ffffffffffffffffffffffffffffffffffffffff168473ffffffffffffffffffffffffffffffffffffffff161480611e4c5750611e4b8484611028565b5b80611e8a57508273ffffffffffffffffffffffffffffffffffffffff16611e7283611401565b73ffffffffffffffffffffffffffffffffffffffff16145b5b90509392505050565b600080600090507a184f03e93ff9f4daa797ed6e38ed64bf6a1f0100000000000000008310611ef2577a184f03e93ff9f4daa797ed6e38ed64bf6a1f0100000000000000008381611ee857611ee7612a74565b5b0492506040810190505b6d04ee2d6d415b85acef81000000008310611f2f576d04ee2d6d415b85acef81000000008381611f2557611f24612a74565b5b0492506020810190505b662386f26fc100008310611f5e57662386f26fc100008381611f5457611f53612a74565b5b0492506010810190505b6305f5e1008310611f87576305f5e1008381611f7d57611f7c612a74565b5b0492506008810190505b6127108310611fac576127108381611fa257611fa1612a74565b5b0492506004810190505b60648310611fcf5760648381611fc557611fc4612a74565b5b0492506002810190505b600a8310611fde576001810190505b80915050919050565b6000604051905090565b600080fd5b600080fd5b60007fffffffff0000000000000000000000000000000000000000000000000000000082169050919050565b61203081611ffb565b811461203b57600080fd5b50565b60008135905061204d81612027565b92915050565b60006020828403121561206957612068611ff1565b5b60006120778482850161203e565b91505092915050565b60008115159050919050565b61209581612080565b82525050565b60006020820190506120b0600083018461208c565b92915050565b6000819050919050565b6120c9816120b6565b81146120d457600080fd5b50565b6000813590506120e6816120c0565b92915050565b6000806040838503121561210357612102611ff1565b5b6000612111858286016120d7565b9250506020612122858286016120d7565b9150509250929050565b600081519050919050565b600082825260208201905092915050565b60005b8381101561216657808201518184015260208101905061214b565b60008484015250505050565b6000601f19601f8301169050919050565b600061218e8261212c565b6121988185612137565b93506121a8818560208601612148565b6121b181612172565b840191505092915050565b600060208201905081810360008301526121d68184612183565b905092915050565b6000602082840312156121f4576121f3611ff1565b5b6000612202848285016120d7565b91505092915050565b600073ffffffffffffffffffffffffffffffffffffffff82169050919050565b60006122368261220b565b9050919050565b6122468161222b565b82525050565b6000602082019050612261600083018461223d565b92915050565b6122708161222b565b811461227b57600080fd5b50565b60008135905061228d81612267565b92915050565b600080604083850312156122aa576122a9611ff1565b5b60006122b88582860161227e565b92505060206122c9858286016120d7565b9150509250929050565b6122dc816120b6565b82525050565b60006020820190506122f760008301846122d3565b92915050565b60008060006060848603121561231657612315611ff1565b5b60006123248682870161227e565b93505060206123358682870161227e565b9250506040612346868287016120d7565b9150509250925092565b60006020828403121561236657612365611ff1565b5b60006123748482850161227e565b91505092915050565b61238681612080565b811461239157600080fd5b50565b6000813590506123a38161237d565b92915050565b600080604083850312156123c0576123bf611ff1565b5b60006123ce8582860161227e565b92505060206123df85828601612394565b9150509250929050565b600080fd5b600080fd5b7f4e487b7100000000000000000000000000000000000000000000000000000000600052604160045260246000fd5b61242b82612172565b810181811067ffffffffffffffff8211171561244a576124496123f3565b5b80604052505050565b600061245d611fe7565b90506124698282612422565b919050565b600067ffffffffffffffff821115612489576124886123f3565b5b61249282612172565b9050602081019050919050565b82818337600083830152505050565b60006124c16124bc8461246e565b612453565b9050828152602081018484840111156124dd576124dc6123ee565b5b6124e884828561249f565b509392505050565b600082601f830112612505576125046123e9565b5b81356125158482602086016124ae565b91505092915050565b6000806000806080858703121561253857612537611ff1565b5b60006125468782880161227e565b94505060206125578782880161227e565b9350506040612568878288016120d7565b925050606085013567ffffffffffffffff81111561258957612588611ff6565b5b612595878288016124f0565b91505092959194509250565b6000806000606084860312156125ba576125b9611ff1565b5b60006125c8868287016120d7565b93505060206125d9868287016120d7565b92505060406125ea868287016120d7565b9150509250925092565b6000604082019050612609600083018561223d565b818103602083015261261b8184612183565b90509392505050565b600081519050919050565b600082825260208201905092915050565b6000819050602082019050919050565b612659816120b6565b82525050565b600061266b8383612650565b60208301905092915050565b6000602082019050919050565b600061268f82612624565b612699818561262f565b93506126a483612640565b8060005b838110156126d55781516126bc888261265f565b97506126c783612677565b9250506001810190506126a8565b5085935050505092915050565b600060208201905081810360008301526126fc8184612684565b905092915050565b6000806040838503121561271b5761271a611ff1565b5b60006127298582860161227e565b925050602061273a8582860161227e565b9150509250929050565b7f4e487b7100000000000000000000000000000000000000000000000000000000600052601160045260246000fd5b600061277e826120b6565b9150612789836120b6565b92508282039050818111156127a1576127a0612744565b5b92915050565b7f4e487b7100000000000000000000000000000000000000000000000000000000600052603260045260246000fd5b7f4e487b7100000000000000000000000000000000000000000000000000000000600052603160045260246000fd5b7f4e487b7100000000000000000000000000000000000000000000000000000000600052602260045260246000fd5b6000600282049050600182168061284c57607f821691505b60208210810361285f5761285e612805565b5b50919050565b600060608201905061287a600083018661223d565b61288760208301856122d3565b612894604083018461223d565b949350505050565b7f546f6b656e20646f6573206e6f74206578697374000000000000000000000000600082015250565b60006128d2601483612137565b91506128dd8261289c565b602082019050919050565b60006020820190508181036000830152612901816128c5565b9050919050565b600081905092915050565b600061291e8261212c565b6129288185612908565b9350612938818560208601612148565b80840191505092915050565b60006129508285612913565b915061295c8284612913565b91508190509392505050565b600081519050919050565b600082825260208201905092915050565b600061298f82612968565b6129998185612973565b93506129a9818560208601612148565b6129b281612172565b840191505092915050565b60006080820190506129d2600083018761223d565b6129df602083018661223d565b6129ec60408301856122d3565b81810360608301526129fe8184612984565b905095945050505050565b600081519050612a1881612027565b92915050565b600060208284031215612a3457612a33611ff1565b5b6000612a4284828501612a09565b91505092915050565b6000604082019050612a60600083018561223d565b612a6d60208301846122d3565b9392505050565b7f4e487b7100000000000000000000000000000000000000000000000000000000600052601260045260246000fdfea2646970667358221220039fc36fa8db93d8c2345cea0d0075f6411fbde3edb44430d5953ed49c33810a64736f6c634300081b0033687474703a2f2f6c6f63616c686f73743a353137332f477265656e436162696e2e6a736f6e687474703a2f2f6c6f63616c686f73743a353137332f466f72657374436162696e2e6a736f6e687474703a2f2f6c6f63616c686f73743a353137332f4c616b6573696465436162696e2e6a736f6e687474703a2f2f6c6f63616c686f73743a353137332f4d6f6465726e5768697465436162696e2e6a736f6e687474703a2f2f6c6f63616c686f73743a353137332f42726f776e436162696e2e6a736f6e687474703a2f2f6c6f63616c686f73743a353137332f4f72616e6765436162696e2e6a736f6e687474703a2f2f6c6f63616c686f73743a353137332f4d6f6465726e436162696e2e6a736f6e687474703a2f2f6c6f63616c686f73743a353137332f426c7565436162696e2e6a736f6e687474703a2f2f6c6f63616c686f73743a353137332f526564436162696e2e6a736f6e687474703a2f2f6c6f63616c686f73743a353137332f56616c6c6579436162696e2e6a736f6e687474703a2f2f6c6f63616c686f73743a353137332f50696e6b436162696e2e6a736f6e687474703a2f2f6c6f63616c686f73743a353137332f576964654d616e73696f6e2e6a736f6e",
  "linkReferences": {},
  "deployedLinkReferences": {}
}